{
  "_format": "hh-sol-artifact-1",
  "contractName": "hacklabs",
  "sourceName": "contracts/Hacklabs.sol",
  "abi": [
    {
      "inputs": [],
      "stateMutability": "nonpayable",
      "type": "constructor"
    },
    {
      "anonymous": false,
      "inputs": [
        {
          "indexed": true,
          "internalType": "address",
          "name": "previousOwner",
          "type": "address"
        },
        {
          "indexed": true,
          "internalType": "address",
          "name": "newOwner",
          "type": "address"
        }
      ],
      "name": "OwnershipTransferred",
      "type": "event"
    },
    {
      "inputs": [
        {
          "internalType": "string",
          "name": "newGreeter",
          "type": "string"
        }
      ],
      "name": "changeGreeter",
      "outputs": [],
      "stateMutability": "nonpayable",
      "type": "function"
    },
    {
      "inputs": [],
      "name": "flag",
      "outputs": [
        {
          "internalType": "string",
          "name": "",
          "type": "string"
        }
      ],
      "stateMutability": "view",
      "type": "function"
    },
    {
      "inputs": [],
      "name": "for_flag",
      "outputs": [
        {
          "internalType": "string",
          "name": "",
          "type": "string"
        }
      ],
      "stateMutability": "view",
      "type": "function"
    },
    {
      "inputs": [
        {
          "internalType": "address",
          "name": "",
          "type": "address"
        }
      ],
      "name": "greeter",
      "outputs": [
        {
          "internalType": "string",
          "name": "",
          "type": "string"
        }
      ],
      "stateMutability": "view",
      "type": "function"
    },
    {
      "inputs": [],
      "name": "greeterCount",
      "outputs": [
        {
          "internalType": "uint256",
          "name": "",
          "type": "uint256"
        }
      ],
      "stateMutability": "view",
      "type": "function"
    },
    {
      "inputs": [],
      "name": "greeting",
      "outputs": [
        {
          "internalType": "string",
          "name": "",
          "type": "string"
        }
      ],
      "stateMutability": "view",
      "type": "function"
    },
    {
      "inputs": [],
      "name": "owner",
      "outputs": [
        {
          "internalType": "address",
          "name": "",
          "type": "address"
        }
      ],
      "stateMutability": "view",
      "type": "function"
    },
    {
      "inputs": [],
      "name": "renounceOwnership",
      "outputs": [],
      "stateMutability": "nonpayable",
      "type": "function"
    },
    {
      "inputs": [],
      "name": "reset",
      "outputs": [],
      "stateMutability": "nonpayable",
      "type": "function"
    },
    {
      "inputs": [
        {
          "internalType": "address",
          "name": "newOwner",
          "type": "address"
        }
      ],
      "name": "transferOwnership",
      "outputs": [],
      "stateMutability": "nonpayable",
      "type": "function"
    }
  ],
  "bytecode": "0x60806040523480156200001157600080fd5b506200003262000026620000d460201b60201c565b620000dc60201b60201c565b6040518060400160405280600881526020017f6b696e676b6f6e67000000000000000000000000000000000000000000000000815250600290805190602001906200007f929190620001a0565b506040518060400160405280602081526020017f4841434b4c4142537b57334c4c5f57335f344b52304d345f534159535f48317d81525060039080519060200190620000cd929190620001a0565b50620002b5565b600033905090565b60008060009054906101000a900473ffffffffffffffffffffffffffffffffffffffff169050816000806101000a81548173ffffffffffffffffffffffffffffffffffffffff021916908373ffffffffffffffffffffffffffffffffffffffff1602179055508173ffffffffffffffffffffffffffffffffffffffff168173ffffffffffffffffffffffffffffffffffffffff167f8be0079c531659141344cd1fd0a4f28419497f9722a3daafe3b4186f6b6457e060405160405180910390a35050565b828054620001ae906200027f565b90600052602060002090601f016020900481019282620001d257600085556200021e565b82601f10620001ed57805160ff19168380011785556200021e565b828001600101855582156200021e579182015b828111156200021d57825182559160200191906001019062000200565b5b5090506200022d919062000231565b5090565b5b808211156200024c57600081600090555060010162000232565b5090565b7f4e487b7100000000000000000000000000000000000000000000000000000000600052602260045260246000fd5b600060028204905060018216806200029857607f821691505b60208210811415620002af57620002ae62000250565b5b50919050565b6113bd80620002c56000396000f3fe608060405234801561001057600080fd5b506004361061009e5760003560e01c80638da5cb5b116100665780638da5cb5b146101355780639eb5c43114610153578063d826f88f14610171578063ef690cc01461017b578063f2fde38b146101995761009e565b80633e4721e7146100a3578063715018a6146100d35780637516bc61146100dd5780638296a7b4146100f9578063890eba6814610117575b600080fd5b6100bd60048036038101906100b89190610b63565b6101b5565b6040516100ca9190610c29565b60405180910390f35b6100db610255565b005b6100f760048036038101906100f29190610d80565b610269565b005b610101610314565b60405161010e9190610c29565b60405180910390f35b61011f6103a2565b60405161012c9190610c29565b60405180910390f35b61013d610430565b60405161014a9190610dd8565b60405180910390f35b61015b610459565b6040516101689190610e0c565b60405180910390f35b61017961046a565b005b61018361047e565b6040516101909190610c29565b60405180910390f35b6101b360048036038101906101ae9190610b63565b610624565b005b600460205280600052604060002060009150905080546101d490610e56565b80601f016020809104026020016040519081016040528092919081815260200182805461020090610e56565b801561024d5780601f106102225761010080835404028352916020019161024d565b820191906000526020600020905b81548152906001019060200180831161023057829003601f168201915b505050505081565b61025d6106a8565b6102676000610726565b565b600081905060008151116102b2576040517f08c379a00000000000000000000000000000000000000000000000000000000081526004016102a990610efa565b60405180910390fd5b81600460003373ffffffffffffffffffffffffffffffffffffffff1673ffffffffffffffffffffffffffffffffffffffff1681526020019081526020016000209080519060200190610305929190610a4e565b5061031060016107ea565b5050565b6002805461032190610e56565b80601f016020809104026020016040519081016040528092919081815260200182805461034d90610e56565b801561039a5780601f1061036f5761010080835404028352916020019161039a565b820191906000526020600020905b81548152906001019060200180831161037d57829003601f168201915b505050505081565b600380546103af90610e56565b80601f01602080910402602001604051908101604052809291908181526020018280546103db90610e56565b80156104285780601f106103fd57610100808354040283529160200191610428565b820191906000526020600020905b81548152906001019060200180831161040b57829003601f168201915b505050505081565b60008060009054906101000a900473ffffffffffffffffffffffffffffffffffffffff16905090565b60006104656001610800565b905090565b6104726106a8565b61047c600161080e565b565b6060600260405161048f9190610fb9565b6040518091039020600460003373ffffffffffffffffffffffffffffffffffffffff1673ffffffffffffffffffffffffffffffffffffffff1681526020019081526020016000206040516104e39190610fb9565b60405180910390201461056e576000600460003373ffffffffffffffffffffffffffffffffffffffff1673ffffffffffffffffffffffffffffffffffffffff16815260200190815260200160002061054361053e6001610800565b61081b565b604051602001610554929190611184565b604051602081830303815290604052905080915050610621565b600260405161057d9190610fb9565b6040518091039020600460003373ffffffffffffffffffffffffffffffffffffffff1673ffffffffffffffffffffffffffffffffffffffff1681526020019081526020016000206040516105d19190610fb9565b6040518091039020141561062057600060036105f56105f06001610800565b61081b565b604051602001610606929190611215565b604051602081830303815290604052905080915050610621565b5b90565b61062c6106a8565b600073ffffffffffffffffffffffffffffffffffffffff168173ffffffffffffffffffffffffffffffffffffffff16141561069c576040517f08c379a0000000000000000000000000000000000000000000000000000000008152600401610693906112cc565b60405180910390fd5b6106a581610726565b50565b6106b06108f3565b73ffffffffffffffffffffffffffffffffffffffff166106ce610430565b73ffffffffffffffffffffffffffffffffffffffff1614610724576040517f08c379a000000000000000000000000000000000000000000000000000000000815260040161071b90611338565b60405180910390fd5b565b60008060009054906101000a900473ffffffffffffffffffffffffffffffffffffffff169050816000806101000a81548173ffffffffffffffffffffffffffffffffffffffff021916908373ffffffffffffffffffffffffffffffffffffffff1602179055508173ffffffffffffffffffffffffffffffffffffffff168173ffffffffffffffffffffffffffffffffffffffff167f8be0079c531659141344cd1fd0a4f28419497f9722a3daafe3b4186f6b6457e060405160405180910390a35050565b6001816000016000828254019250508190555050565b600081600001549050919050565b6000816000018190555050565b60606000600161082a846108fb565b01905060008167ffffffffffffffff81111561084957610848610c55565b5b6040519080825280601f01601f19166020018201604052801561087b5781602001600182028036833780820191505090505b509050600082602001820190505b6001156108e8578080600190039150507f3031323334353637383961626364656600000000000000000000000000000000600a86061a8153600a85816108d2576108d1611358565b5b04945060008514156108e3576108e8565b610889565b819350505050919050565b600033905090565b600080600090507a184f03e93ff9f4daa797ed6e38ed64bf6a1f0100000000000000008310610959577a184f03e93ff9f4daa797ed6e38ed64bf6a1f010000000000000000838161094f5761094e611358565b5b0492506040810190505b6d04ee2d6d415b85acef81000000008310610996576d04ee2d6d415b85acef8100000000838161098c5761098b611358565b5b0492506020810190505b662386f26fc1000083106109c557662386f26fc1000083816109bb576109ba611358565b5b0492506010810190505b6305f5e10083106109ee576305f5e10083816109e4576109e3611358565b5b0492506008810190505b6127108310610a13576127108381610a0957610a08611358565b5b0492506004810190505b60648310610a365760648381610a2c57610a2b611358565b5b0492506002810190505b600a8310610a45576001810190505b80915050919050565b828054610a5a90610e56565b90600052602060002090601f016020900481019282610a7c5760008555610ac3565b82601f10610a9557805160ff1916838001178555610ac3565b82800160010185558215610ac3579182015b82811115610ac2578251825591602001919060010190610aa7565b5b509050610ad09190610ad4565b5090565b5b80821115610aed576000816000905550600101610ad5565b5090565b6000604051905090565b600080fd5b600080fd5b600073ffffffffffffffffffffffffffffffffffffffff82169050919050565b6000610b3082610b05565b9050919050565b610b4081610b25565b8114610b4b57600080fd5b50565b600081359050610b5d81610b37565b92915050565b600060208284031215610b7957610b78610afb565b5b6000610b8784828501610b4e565b91505092915050565b600081519050919050565b600082825260208201905092915050565b60005b83811015610bca578082015181840152602081019050610baf565b83811115610bd9576000848401525b50505050565b6000601f19601f8301169050919050565b6000610bfb82610b90565b610c058185610b9b565b9350610c15818560208601610bac565b610c1e81610bdf565b840191505092915050565b60006020820190508181036000830152610c438184610bf0565b905092915050565b600080fd5b600080fd5b7f4e487b7100000000000000000000000000000000000000000000000000000000600052604160045260246000fd5b610c8d82610bdf565b810181811067ffffffffffffffff82111715610cac57610cab610c55565b5b80604052505050565b6000610cbf610af1565b9050610ccb8282610c84565b919050565b600067ffffffffffffffff821115610ceb57610cea610c55565b5b610cf482610bdf565b9050602081019050919050565b82818337600083830152505050565b6000610d23610d1e84610cd0565b610cb5565b905082815260208101848484011115610d3f57610d3e610c50565b5b610d4a848285610d01565b509392505050565b600082601f830112610d6757610d66610c4b565b5b8135610d77848260208601610d10565b91505092915050565b600060208284031215610d9657610d95610afb565b5b600082013567ffffffffffffffff811115610db457610db3610b00565b5b610dc084828501610d52565b91505092915050565b610dd281610b25565b82525050565b6000602082019050610ded6000830184610dc9565b92915050565b6000819050919050565b610e0681610df3565b82525050565b6000602082019050610e216000830184610dfd565b92915050565b7f4e487b7100000000000000000000000000000000000000000000000000000000600052602260045260246000fd5b60006002820490506001821680610e6e57607f821691505b60208210811415610e8257610e81610e27565b5b50919050565b7f496e76616c6964206e6577477265657465722e20456d70747920537472696e6760008201527f206e6f7420616c6c6f7765642e00000000000000000000000000000000000000602082015250565b6000610ee4602d83610b9b565b9150610eef82610e88565b604082019050919050565b60006020820190508181036000830152610f1381610ed7565b9050919050565b600081905092915050565b60008190508160005260206000209050919050565b60008154610f4781610e56565b610f518186610f1a565b94506001821660008114610f6c5760018114610f7d57610fb0565b60ff19831686528186019350610fb0565b610f8685610f25565b60005b83811015610fa857815481890152600182019150602081019050610f89565b838801955050505b50505092915050565b6000610fc58284610f3a565b915081905092915050565b600081905092915050565b7f48656c6c6f2c2000000000000000000000000000000000000000000000000000600082015250565b6000611011600783610fd0565b915061101c82610fdb565b600782019050919050565b60008190508160005260206000209050919050565b6000815461104981610e56565b6110538186610fd0565b9450600182166000811461106e576001811461107f576110b2565b60ff198316865281860193506110b2565b61108885611027565b60005b838110156110aa5781548189015260018201915060208101905061108b565b838801955050505b50505092915050565b7f2e20546865206772656574657220686173206368616e67656420000000000000600082015250565b60006110f1601a83610fd0565b91506110fc826110bb565b601a82019050919050565b600061111282610b90565b61111c8185610fd0565b935061112c818560208601610bac565b80840191505092915050565b7f2074696d65732e00000000000000000000000000000000000000000000000000600082015250565b600061116e600783610fd0565b915061117982611138565b600782019050919050565b600061118f82611004565b915061119b828561103c565b91506111a6826110e4565b91506111b28284611107565b91506111bd82611161565b91508190509392505050565b7f48656c6c6f2c204865726520697320796f757220666c61670000000000000000600082015250565b60006111ff601883610fd0565b915061120a826111c9565b601882019050919050565b6000611220826111f2565b915061122c828561103c565b9150611237826110e4565b91506112438284611107565b915061124e82611161565b91508190509392505050565b7f4f776e61626c653a206e6577206f776e657220697320746865207a65726f206160008201527f6464726573730000000000000000000000000000000000000000000000000000602082015250565b60006112b6602683610b9b565b91506112c18261125a565b604082019050919050565b600060208201905081810360008301526112e5816112a9565b9050919050565b7f4f776e61626c653a2063616c6c6572206973206e6f7420746865206f776e6572600082015250565b6000611322602083610b9b565b915061132d826112ec565b602082019050919050565b6000602082019050818103600083015261135181611315565b9050919050565b7f4e487b7100000000000000000000000000000000000000000000000000000000600052601260045260246000fdfea2646970667358221220ff32aee446cd35c79b9bd57de22345464dd30634b31cc76364a239890992ae9e64736f6c63430008090033",
  "linkReferences": {},
  "deployedLinkReferences": {}
}